{
  "contractName": "MultiSigWallet",
  "abi": [
    {
      "inputs": [
        {
          "internalType": "address[]",
          "name": "_owners",
          "type": "address[]"
        },
        {
          "internalType": "uint256",
          "name": "_limit",
          "type": "uint256"
        }
      ],
      "stateMutability": "nonpayable",
      "type": "constructor"
    },
    {
      "anonymous": false,
      "inputs": [
        {
          "indexed": false,
          "internalType": "uint256",
          "name": "ID",
          "type": "uint256"
        },
        {
          "indexed": false,
          "internalType": "uint256",
          "name": "approvals",
          "type": "uint256"
        },
        {
          "indexed": false,
          "internalType": "address",
          "name": "approver",
          "type": "address"
        }
      ],
      "name": "ApprovalReception",
      "type": "event"
    },
    {
      "anonymous": false,
      "inputs": [
        {
          "indexed": false,
          "internalType": "uint256",
          "name": "ID",
          "type": "uint256"
        }
      ],
      "name": "TransferRequestApproval",
      "type": "event"
    },
    {
      "anonymous": false,
      "inputs": [
        {
          "indexed": false,
          "internalType": "uint256",
          "name": "ID",
          "type": "uint256"
        },
        {
          "indexed": false,
          "internalType": "uint256",
          "name": "amount",
          "type": "uint256"
        },
        {
          "indexed": false,
          "internalType": "address",
          "name": "creator",
          "type": "address"
        },
        {
          "indexed": false,
          "internalType": "address",
          "name": "beneficiary",
          "type": "address"
        }
      ],
      "name": "TransferRequestCreation",
      "type": "event"
    },
    {
      "inputs": [
        {
          "internalType": "address",
          "name": "",
          "type": "address"
        }
      ],
      "name": "balances",
      "outputs": [
        {
          "internalType": "uint256",
          "name": "",
          "type": "uint256"
        }
      ],
      "stateMutability": "view",
      "type": "function"
    },
    {
      "inputs": [
        {
          "internalType": "address",
          "name": "",
          "type": "address"
        },
        {
          "internalType": "uint256",
          "name": "",
          "type": "uint256"
        }
      ],
      "name": "isApproved",
      "outputs": [
        {
          "internalType": "bool",
          "name": "",
          "type": "bool"
        }
      ],
      "stateMutability": "view",
      "type": "function"
    },
    {
      "inputs": [],
      "name": "limit",
      "outputs": [
        {
          "internalType": "uint256",
          "name": "",
          "type": "uint256"
        }
      ],
      "stateMutability": "view",
      "type": "function"
    },
    {
      "inputs": [],
      "name": "nextID",
      "outputs": [
        {
          "internalType": "uint256",
          "name": "",
          "type": "uint256"
        }
      ],
      "stateMutability": "view",
      "type": "function"
    },
    {
      "inputs": [
        {
          "internalType": "uint256",
          "name": "",
          "type": "uint256"
        }
      ],
      "name": "owners",
      "outputs": [
        {
          "internalType": "address",
          "name": "",
          "type": "address"
        }
      ],
      "stateMutability": "view",
      "type": "function"
    },
    {
      "inputs": [
        {
          "internalType": "uint256",
          "name": "",
          "type": "uint256"
        }
      ],
      "name": "transfers",
      "outputs": [
        {
          "internalType": "uint256",
          "name": "ID",
          "type": "uint256"
        },
        {
          "internalType": "uint256",
          "name": "amount",
          "type": "uint256"
        },
        {
          "internalType": "address payable",
          "name": "to",
          "type": "address"
        },
        {
          "internalType": "uint256",
          "name": "approvals",
          "type": "uint256"
        },
        {
          "internalType": "bool",
          "name": "isSent",
          "type": "bool"
        }
      ],
      "stateMutability": "view",
      "type": "function"
    },
    {
      "stateMutability": "payable",
      "type": "receive"
    },
    {
      "inputs": [],
      "name": "depositFunds",
      "outputs": [],
      "stateMutability": "payable",
      "type": "function"
    },
    {
      "inputs": [],
      "name": "getBalance",
      "outputs": [
        {
          "internalType": "uint256",
          "name": "contractBalance",
          "type": "uint256"
        }
      ],
      "stateMutability": "view",
      "type": "function"
    },
    {
      "inputs": [],
      "name": "getOwners",
      "outputs": [
        {
          "internalType": "address[]",
          "name": "",
          "type": "address[]"
        }
      ],
      "stateMutability": "view",
      "type": "function"
    },
    {
      "inputs": [
        {
          "internalType": "uint256",
          "name": "_amount",
          "type": "uint256"
        },
        {
          "internalType": "address payable",
          "name": "_to",
          "type": "address"
        }
      ],
      "name": "createTransferRequest",
      "outputs": [],
      "stateMutability": "nonpayable",
      "type": "function"
    },
    {
      "inputs": [
        {
          "internalType": "uint256",
          "name": "_ID",
          "type": "uint256"
        }
      ],
      "name": "approveTransferRequest",
      "outputs": [],
      "stateMutability": "payable",
      "type": "function"
    }
  ],
  "bytecode": "0x60806040523480156200001157600080fd5b50604051620015e6380380620015e68339818101604052810190620000379190620001dd565b81600090805190602001906200004f9291906200005f565b508060018190555050506200033b565b828054828255906000526020600020908101928215620000db579160200282015b82811115620000da5782518260006101000a81548173ffffffffffffffffffffffffffffffffffffffff021916908373ffffffffffffffffffffffffffffffffffffffff1602179055509160200191906001019062000080565b5b509050620000ea9190620000ee565b5090565b5b8082111562000109576000816000905550600101620000ef565b5090565b6000620001246200011e846200026b565b62000237565b905080838252602082019050828560208602820111156200014457600080fd5b60005b858110156200017857816200015d888262000182565b84526020840193506020830192505060018101905062000147565b5050509392505050565b600081519050620001938162000307565b92915050565b600082601f830112620001ab57600080fd5b8151620001bd8482602086016200010d565b91505092915050565b600081519050620001d78162000321565b92915050565b60008060408385031215620001f157600080fd5b600083015167ffffffffffffffff8111156200020c57600080fd5b6200021a8582860162000199565b92505060206200022d85828601620001c6565b9150509250929050565b6000604051905081810181811067ffffffffffffffff82111715620002615762000260620002d8565b5b8060405250919050565b600067ffffffffffffffff821115620002895762000288620002d8565b5b602082029050602081019050919050565b6000620002a782620002ae565b9050919050565b600073ffffffffffffffffffffffffffffffffffffffff82169050919050565b6000819050919050565b7f4e487b7100000000000000000000000000000000000000000000000000000000600052604160045260246000fd5b62000312816200029a565b81146200031e57600080fd5b50565b6200032c81620002ce565b81146200033857600080fd5b50565b61129b806200034b6000396000f3fe6080604052600436106100a05760003560e01c80634e4dd230116100645780634e4dd230146101c15780639377d711146101ea578063a0e67e2b1461022b578063a4d66daf14610256578063dec3eea514610281578063e2c41dbc1461029d576100af565b8063025e7c27146100b457806312065fe0146100f15780631e96917d1461011c57806327e235e3146101475780632a16cca414610184576100af565b366100af576100ad6102a7565b005b600080fd5b3480156100c057600080fd5b506100db60048036038101906100d69190610cbb565b6102ff565b6040516100e89190610ed6565b60405180910390f35b3480156100fd57600080fd5b5061010661033e565b6040516101139190610f8e565b60405180910390f35b34801561012857600080fd5b50610131610454565b60405161013e9190610f8e565b60405180910390f35b34801561015357600080fd5b5061016e60048036038101906101699190610c56565b61045a565b60405161017b9190610f8e565b60405180910390f35b34801561019057600080fd5b506101ab60048036038101906101a69190610c7f565b610472565b6040516101b89190610f13565b60405180910390f35b3480156101cd57600080fd5b506101e860048036038101906101e39190610ce4565b6104a1565b005b3480156101f657600080fd5b50610211600480360381019061020c9190610cbb565b610730565b604051610222959493929190610fe0565b60405180910390f35b34801561023757600080fd5b50610240610793565b60405161024d9190610ef1565b60405180910390f35b34801561026257600080fd5b5061026b610821565b6040516102789190610f8e565b60405180910390f35b61029b60048036038101906102969190610cbb565b610827565b005b6102a56102a7565b005b34600360003373ffffffffffffffffffffffffffffffffffffffff1673ffffffffffffffffffffffffffffffffffffffff16815260200190815260200160002060008282546102f691906110c2565b92505081905550565b6000818154811061030f57600080fd5b906000526020600020016000915054906101000a900473ffffffffffffffffffffffffffffffffffffffff1681565b6000806000905060005b600080549050811015610405573373ffffffffffffffffffffffffffffffffffffffff16600082815481106103a6577f4e487b7100000000000000000000000000000000000000000000000000000000600052603260045260246000fd5b9060005260206000200160009054906101000a900473ffffffffffffffffffffffffffffffffffffffff1673ffffffffffffffffffffffffffffffffffffffff1614156103f257600191505b80806103fd906111a8565b915050610348565b50600115158115151461044d576040517f08c379a000000000000000000000000000000000000000000000000000000000815260040161044490610f4e565b60405180910390fd5b4791505090565b60025481565b60036020528060005260406000206000915090505481565b60056020528160005260406000206020528060005260406000206000915091509054906101000a900460ff1681565b6000805b600080549050811015610562573373ffffffffffffffffffffffffffffffffffffffff1660008281548110610503577f4e487b7100000000000000000000000000000000000000000000000000000000600052603260045260246000fd5b9060005260206000200160009054906101000a900473ffffffffffffffffffffffffffffffffffffffff1673ffffffffffffffffffffffffffffffffffffffff16141561054f57600191505b808061055a906111a8565b9150506104a5565b5060011515811515146105aa576040517f08c379a00000000000000000000000000000000000000000000000000000000081526004016105a190610f4e565b60405180910390fd5b826105b361033e565b10156105f4576040517f08c379a00000000000000000000000000000000000000000000000000000000081526004016105eb90610f2e565b60405180910390fd5b7f576aabd1f1a9e86d2d10d5f31e88027cd3fbb1f482be81dc61820d2b27dde0cc60025484338560405161062b9493929190611033565b60405180910390a16040518060a0016040528060025481526020018481526020018373ffffffffffffffffffffffffffffffffffffffff1681526020016000815260200160001515815250600460006002548152602001908152602001600020600082015181600001556020820151816001015560408201518160020160006101000a81548173ffffffffffffffffffffffffffffffffffffffff021916908373ffffffffffffffffffffffffffffffffffffffff1602179055506060820151816003015560808201518160040160006101000a81548160ff02191690831515021790555090505060026000815480929190610726906111a8565b9190505550505050565b60046020528060005260406000206000915090508060000154908060010154908060020160009054906101000a900473ffffffffffffffffffffffffffffffffffffffff16908060030154908060040160009054906101000a900460ff16905085565b6060600080548060200260200160405190810160405280929190818152602001828054801561081757602002820191906000526020600020905b8160009054906101000a900473ffffffffffffffffffffffffffffffffffffffff1673ffffffffffffffffffffffffffffffffffffffff16815260200190600101908083116107cd575b5050505050905090565b60015481565b6000805b6000805490508110156108e8573373ffffffffffffffffffffffffffffffffffffffff1660008281548110610889577f4e487b7100000000000000000000000000000000000000000000000000000000600052603260045260246000fd5b9060005260206000200160009054906101000a900473ffffffffffffffffffffffffffffffffffffffff1673ffffffffffffffffffffffffffffffffffffffff1614156108d557600191505b80806108e0906111a8565b91505061082b565b506001151581151514610930576040517f08c379a000000000000000000000000000000000000000000000000000000000815260040161092790610f4e565b60405180910390fd5b600015156004600084815260200190815260200160002060040160009054906101000a900460ff1615151461099a576040517f08c379a000000000000000000000000000000000000000000000000000000000815260040161099190610f6e565b60405180910390fd5b60001515600560003373ffffffffffffffffffffffffffffffffffffffff1673ffffffffffffffffffffffffffffffffffffffff168152602001908152602001600020600084815260200190815260200160002060009054906101000a900460ff16151514610a0857600080fd5b6001600560003373ffffffffffffffffffffffffffffffffffffffff1673ffffffffffffffffffffffffffffffffffffffff168152602001908152602001600020600084815260200190815260200160002060006101000a81548160ff021916908315150217905550600460008381526020019081526020016000206003016000815480929190610a98906111a8565b91905055507f0ee04e6d7ef21f8de39b0dcf9395672642145ebee634597da324de321b2ccd5d82600460008581526020019081526020016000206003015433604051610ae693929190610fa9565b60405180910390a1600154600460008481526020019081526020016000206003015410610c135760016004600084815260200190815260200160002060040160006101000a81548160ff02191690831515021790555060006004600084815260200190815260200160002060020160009054906101000a900473ffffffffffffffffffffffffffffffffffffffff1690506000600460008581526020019081526020016000206001015490508173ffffffffffffffffffffffffffffffffffffffff166108fc829081150290604051600060405180830381858888f19350505050158015610bd8573d6000803e3d6000fd5b507f4c3d4214dfdc8764f4b7b1a16475948b1399cdb6754abe447dc53218398edacb84604051610c089190610f8e565b60405180910390a150505b5050565b600081359050610c2681611220565b92915050565b600081359050610c3b81611237565b92915050565b600081359050610c508161124e565b92915050565b600060208284031215610c6857600080fd5b6000610c7684828501610c17565b91505092915050565b60008060408385031215610c9257600080fd5b6000610ca085828601610c17565b9250506020610cb185828601610c41565b9150509250929050565b600060208284031215610ccd57600080fd5b6000610cdb84828501610c41565b91505092915050565b60008060408385031215610cf757600080fd5b6000610d0585828601610c41565b9250506020610d1685828601610c2c565b9150509250929050565b6000610d2c8383610d56565b60208301905092915050565b610d4181611172565b82525050565b610d508161112a565b82525050565b610d5f81611118565b82525050565b610d6e81611118565b82525050565b6000610d7f82611088565b610d8981856110a0565b9350610d9483611078565b8060005b83811015610dc5578151610dac8882610d20565b9750610db783611093565b925050600181019050610d98565b5085935050505092915050565b610ddb8161113c565b82525050565b6000610dee6023836110b1565b91507f416d6f756e7420657863656564732074686520636f6e74726163742062616c6160008301527f6e636500000000000000000000000000000000000000000000000000000000006020830152604082019050919050565b6000610e546013836110b1565b91507f4f6e6c79206f776e65727320616c6c6f776564000000000000000000000000006000830152602082019050919050565b6000610e94601e836110b1565b91507f5472616e736665722068617320616c7265616479206265656e2073656e7400006000830152602082019050919050565b610ed081611168565b82525050565b6000602082019050610eeb6000830184610d65565b92915050565b60006020820190508181036000830152610f0b8184610d74565b905092915050565b6000602082019050610f286000830184610dd2565b92915050565b60006020820190508181036000830152610f4781610de1565b9050919050565b60006020820190508181036000830152610f6781610e47565b9050919050565b60006020820190508181036000830152610f8781610e87565b9050919050565b6000602082019050610fa36000830184610ec7565b92915050565b6000606082019050610fbe6000830186610ec7565b610fcb6020830185610ec7565b610fd86040830184610d65565b949350505050565b600060a082019050610ff56000830188610ec7565b6110026020830187610ec7565b61100f6040830186610d47565b61101c6060830185610ec7565b6110296080830184610dd2565b9695505050505050565b60006080820190506110486000830187610ec7565b6110556020830186610ec7565b6110626040830185610d65565b61106f6060830184610d38565b95945050505050565b6000819050602082019050919050565b600081519050919050565b6000602082019050919050565b600082825260208201905092915050565b600082825260208201905092915050565b60006110cd82611168565b91506110d883611168565b9250827fffffffffffffffffffffffffffffffffffffffffffffffffffffffffffffffff0382111561110d5761110c6111f1565b5b828201905092915050565b600061112382611148565b9050919050565b600061113582611148565b9050919050565b60008115159050919050565b600073ffffffffffffffffffffffffffffffffffffffff82169050919050565b6000819050919050565b600061117d82611184565b9050919050565b600061118f82611196565b9050919050565b60006111a182611148565b9050919050565b60006111b382611168565b91507fffffffffffffffffffffffffffffffffffffffffffffffffffffffffffffffff8214156111e6576111e56111f1565b5b600182019050919050565b7f4e487b7100000000000000000000000000000000000000000000000000000000600052601160045260246000fd5b61122981611118565b811461123457600080fd5b50565b6112408161112a565b811461124b57600080fd5b50565b61125781611168565b811461126257600080fd5b5056fea26469706673582212209e5a4e029020fa7d6761fe94605d478f45c95be673bfcc6363885f93200f090d64736f6c63430008000033",
  "immutableReferences": {},
  "source": "//SPDX-License-Identifier: GPL-3.0\r\n\r\npragma solidity ^0.8.0;\r\n\r\ncontract MultiSigWallet {\r\n    address[] public owners;\r\n    uint256 public limit;\r\n    uint256 public nextID;\r\n\r\n    struct TransferRequest {\r\n        uint256 ID;\r\n        uint256 amount;\r\n        address payable to;\r\n        uint256 approvals;\r\n        bool isSent;\r\n    }\r\n\r\n    mapping(address => uint256) public balances;\r\n    mapping(uint256 => TransferRequest) public transfers;\r\n    mapping(address => mapping(uint256 => bool)) public isApproved;\r\n\r\n    event TransferRequestCreation(\r\n        uint256 ID,\r\n        uint256 amount,\r\n        address creator,\r\n        address beneficiary\r\n    );\r\n    event ApprovalReception(uint256 ID, uint256 approvals, address approver);\r\n    event TransferRequestApproval(uint256 ID);\r\n\r\n    modifier onlyOwner() {\r\n        bool isOwner = false;\r\n        for (uint256 i; i < owners.length; i++) {\r\n            if (owners[i] == msg.sender) {\r\n                isOwner = true;\r\n            }\r\n        }\r\n        require(isOwner == true, \"Only owners allowed\");\r\n        _;\r\n    }\r\n\r\n    constructor(address[] memory _owners, uint256 _limit) {\r\n        owners = _owners;\r\n        limit = _limit;\r\n    }\r\n\r\n    receive() external payable {\r\n        depositFunds();\r\n    }\r\n\r\n    function depositFunds() public payable {\r\n        balances[msg.sender] += msg.value;\r\n    }\r\n\r\n    function getBalance()\r\n        public\r\n        view\r\n        onlyOwner\r\n        returns (uint256 contractBalance)\r\n    {\r\n        return address(this).balance;\r\n    }\r\n\r\n    function getOwners() public view returns (address[] memory) {\r\n        return owners;\r\n    }\r\n\r\n    function createTransferRequest(uint256 _amount, address payable _to)\r\n        external\r\n        onlyOwner\r\n    {\r\n        require(getBalance() >= _amount, \"Amount exceeds the contract balance\");\r\n\r\n        emit TransferRequestCreation(nextID, _amount, msg.sender, _to);\r\n\r\n        transfers[nextID] = TransferRequest(nextID, _amount, _to, 0, false);\r\n        nextID++;\r\n    }\r\n\r\n    function approveTransferRequest(uint256 _ID) external payable onlyOwner {\r\n        require(\r\n            transfers[_ID].isSent == false,\r\n            \"Transfer has already been sent\"\r\n        );\r\n        require(isApproved[msg.sender][_ID] == false);\r\n\r\n        isApproved[msg.sender][_ID] = true;\r\n        transfers[_ID].approvals++;\r\n\r\n        emit ApprovalReception(_ID, transfers[_ID].approvals, msg.sender);\r\n\r\n        if (transfers[_ID].approvals >= limit) {\r\n            transfers[_ID].isSent = true;\r\n            address payable to = transfers[_ID].to;\r\n            uint256 amount = transfers[_ID].amount;\r\n            to.transfer(amount);\r\n            emit TransferRequestApproval(_ID);\r\n        }\r\n    }\r\n}\r\n",
  "sourcePath": "C:/Users/zrinc/Projects/multisigwallet-react/src/contracts/MultiSigWallet.sol",
  "compiler": {
    "name": "solc",
    "version": "0.8.0+commit.c7dfd78e.Emscripten.clang"
  },
  "schemaVersion": "3.4.1",
  "updatedAt": "2021-09-22T03:11:46.640Z",
  "devdoc": {
    "kind": "dev",
    "methods": {},
    "version": 1
  },
  "userdoc": {
    "kind": "user",
    "methods": {},
    "version": 1
  }
}