{
  "contractName": "MultiSigWallet",
  "abi": [
    {
      "inputs": [
        {
          "internalType": "address[]",
          "name": "_owners",
          "type": "address[]"
        },
        {
          "internalType": "uint256",
          "name": "_limit",
          "type": "uint256"
        }
      ],
      "stateMutability": "nonpayable",
      "type": "constructor"
    },
    {
      "anonymous": false,
      "inputs": [
        {
          "indexed": false,
          "internalType": "uint256",
          "name": "ID",
          "type": "uint256"
        },
        {
          "indexed": false,
          "internalType": "uint256",
          "name": "approvals",
          "type": "uint256"
        },
        {
          "indexed": false,
          "internalType": "address",
          "name": "approver",
          "type": "address"
        }
      ],
      "name": "ApprovalReception",
      "type": "event"
    },
    {
      "anonymous": false,
      "inputs": [
        {
          "indexed": false,
          "internalType": "uint256",
          "name": "ID",
          "type": "uint256"
        }
      ],
      "name": "TransferRequestApproval",
      "type": "event"
    },
    {
      "anonymous": false,
      "inputs": [
        {
          "indexed": false,
          "internalType": "uint256",
          "name": "ID",
          "type": "uint256"
        },
        {
          "indexed": false,
          "internalType": "uint256",
          "name": "amount",
          "type": "uint256"
        },
        {
          "indexed": false,
          "internalType": "address",
          "name": "creator",
          "type": "address"
        },
        {
          "indexed": false,
          "internalType": "address",
          "name": "beneficiary",
          "type": "address"
        }
      ],
      "name": "TransferRequestCreation",
      "type": "event"
    },
    {
      "inputs": [
        {
          "internalType": "address",
          "name": "",
          "type": "address"
        }
      ],
      "name": "balances",
      "outputs": [
        {
          "internalType": "uint256",
          "name": "",
          "type": "uint256"
        }
      ],
      "stateMutability": "view",
      "type": "function"
    },
    {
      "inputs": [
        {
          "internalType": "address",
          "name": "",
          "type": "address"
        },
        {
          "internalType": "uint256",
          "name": "",
          "type": "uint256"
        }
      ],
      "name": "isApproved",
      "outputs": [
        {
          "internalType": "bool",
          "name": "",
          "type": "bool"
        }
      ],
      "stateMutability": "view",
      "type": "function"
    },
    {
      "inputs": [],
      "name": "limit",
      "outputs": [
        {
          "internalType": "uint256",
          "name": "",
          "type": "uint256"
        }
      ],
      "stateMutability": "view",
      "type": "function"
    },
    {
      "inputs": [],
      "name": "nextID",
      "outputs": [
        {
          "internalType": "uint256",
          "name": "",
          "type": "uint256"
        }
      ],
      "stateMutability": "view",
      "type": "function"
    },
    {
      "inputs": [
        {
          "internalType": "uint256",
          "name": "",
          "type": "uint256"
        }
      ],
      "name": "owners",
      "outputs": [
        {
          "internalType": "address",
          "name": "",
          "type": "address"
        }
      ],
      "stateMutability": "view",
      "type": "function"
    },
    {
      "inputs": [
        {
          "internalType": "uint256",
          "name": "",
          "type": "uint256"
        }
      ],
      "name": "transfers",
      "outputs": [
        {
          "internalType": "uint256",
          "name": "ID",
          "type": "uint256"
        },
        {
          "internalType": "uint256",
          "name": "amount",
          "type": "uint256"
        },
        {
          "internalType": "address payable",
          "name": "to",
          "type": "address"
        },
        {
          "internalType": "uint256",
          "name": "approvals",
          "type": "uint256"
        },
        {
          "internalType": "bool",
          "name": "isSent",
          "type": "bool"
        }
      ],
      "stateMutability": "view",
      "type": "function"
    },
    {
      "stateMutability": "payable",
      "type": "receive"
    },
    {
      "inputs": [],
      "name": "depositFunds",
      "outputs": [],
      "stateMutability": "payable",
      "type": "function"
    },
    {
      "inputs": [],
      "name": "getBalance",
      "outputs": [
        {
          "internalType": "uint256",
          "name": "contractBalance",
          "type": "uint256"
        }
      ],
      "stateMutability": "view",
      "type": "function"
    },
    {
      "inputs": [
        {
          "internalType": "uint256",
          "name": "_amount",
          "type": "uint256"
        },
        {
          "internalType": "address payable",
          "name": "_to",
          "type": "address"
        }
      ],
      "name": "createTransferRequest",
      "outputs": [],
      "stateMutability": "nonpayable",
      "type": "function"
    },
    {
      "inputs": [
        {
          "internalType": "uint256",
          "name": "_ID",
          "type": "uint256"
        }
      ],
      "name": "approveTransferRequest",
      "outputs": [],
      "stateMutability": "payable",
      "type": "function"
    }
  ],
  "bytecode": "0x60806040523480156200001157600080fd5b5060405162001442380380620014428339818101604052810190620000379190620001dd565b81600090805190602001906200004f9291906200005f565b508060018190555050506200033b565b828054828255906000526020600020908101928215620000db579160200282015b82811115620000da5782518260006101000a81548173ffffffffffffffffffffffffffffffffffffffff021916908373ffffffffffffffffffffffffffffffffffffffff1602179055509160200191906001019062000080565b5b509050620000ea9190620000ee565b5090565b5b8082111562000109576000816000905550600101620000ef565b5090565b6000620001246200011e846200026b565b62000237565b905080838252602082019050828560208602820111156200014457600080fd5b60005b858110156200017857816200015d888262000182565b84526020840193506020830192505060018101905062000147565b5050509392505050565b600081519050620001938162000307565b92915050565b600082601f830112620001ab57600080fd5b8151620001bd8482602086016200010d565b91505092915050565b600081519050620001d78162000321565b92915050565b60008060408385031215620001f157600080fd5b600083015167ffffffffffffffff8111156200020c57600080fd5b6200021a8582860162000199565b92505060206200022d85828601620001c6565b9150509250929050565b6000604051905081810181811067ffffffffffffffff82111715620002615762000260620002d8565b5b8060405250919050565b600067ffffffffffffffff821115620002895762000288620002d8565b5b602082029050602081019050919050565b6000620002a782620002ae565b9050919050565b600073ffffffffffffffffffffffffffffffffffffffff82169050919050565b6000819050919050565b7f4e487b7100000000000000000000000000000000000000000000000000000000600052604160045260246000fd5b62000312816200029a565b81146200031e57600080fd5b50565b6200032c81620002ce565b81146200033857600080fd5b50565b6110f7806200034b6000396000f3fe6080604052600436106100955760003560e01c80634e4dd230116100595780634e4dd230146101b65780639377d711146101df578063a4d66daf14610220578063dec3eea51461024b578063e2c41dbc14610267576100a4565b8063025e7c27146100a957806312065fe0146100e65780631e96917d1461011157806327e235e31461013c5780632a16cca414610179576100a4565b366100a4576100a2610271565b005b600080fd5b3480156100b557600080fd5b506100d060048036038101906100cb9190610bf7565b6102c9565b6040516100dd9190610d8d565b60405180910390f35b3480156100f257600080fd5b506100fb610308565b6040516101089190610e23565b60405180910390f35b34801561011d57600080fd5b5061012661041e565b6040516101339190610e23565b60405180910390f35b34801561014857600080fd5b50610163600480360381019061015e9190610b92565b610424565b6040516101709190610e23565b60405180910390f35b34801561018557600080fd5b506101a0600480360381019061019b9190610bbb565b61043c565b6040516101ad9190610da8565b60405180910390f35b3480156101c257600080fd5b506101dd60048036038101906101d89190610c20565b61046b565b005b3480156101eb57600080fd5b5061020660048036038101906102019190610bf7565b6106fa565b604051610217959493929190610e75565b60405180910390f35b34801561022c57600080fd5b5061023561075d565b6040516102429190610e23565b60405180910390f35b61026560048036038101906102609190610bf7565b610763565b005b61026f610271565b005b34600360003373ffffffffffffffffffffffffffffffffffffffff1673ffffffffffffffffffffffffffffffffffffffff16815260200190815260200160002060008282546102c09190610f1e565b92505081905550565b600081815481106102d957600080fd5b906000526020600020016000915054906101000a900473ffffffffffffffffffffffffffffffffffffffff1681565b6000806000905060005b6000805490508110156103cf573373ffffffffffffffffffffffffffffffffffffffff1660008281548110610370577f4e487b7100000000000000000000000000000000000000000000000000000000600052603260045260246000fd5b9060005260206000200160009054906101000a900473ffffffffffffffffffffffffffffffffffffffff1673ffffffffffffffffffffffffffffffffffffffff1614156103bc57600191505b80806103c790611004565b915050610312565b506001151581151514610417576040517f08c379a000000000000000000000000000000000000000000000000000000000815260040161040e90610de3565b60405180910390fd5b4791505090565b60025481565b60036020528060005260406000206000915090505481565b60056020528160005260406000206020528060005260406000206000915091509054906101000a900460ff1681565b6000805b60008054905081101561052c573373ffffffffffffffffffffffffffffffffffffffff16600082815481106104cd577f4e487b7100000000000000000000000000000000000000000000000000000000600052603260045260246000fd5b9060005260206000200160009054906101000a900473ffffffffffffffffffffffffffffffffffffffff1673ffffffffffffffffffffffffffffffffffffffff16141561051957600191505b808061052490611004565b91505061046f565b506001151581151514610574576040517f08c379a000000000000000000000000000000000000000000000000000000000815260040161056b90610de3565b60405180910390fd5b8261057d610308565b10156105be576040517f08c379a00000000000000000000000000000000000000000000000000000000081526004016105b590610dc3565b60405180910390fd5b7f576aabd1f1a9e86d2d10d5f31e88027cd3fbb1f482be81dc61820d2b27dde0cc6002548433856040516105f59493929190610ec8565b60405180910390a16040518060a0016040528060025481526020018481526020018373ffffffffffffffffffffffffffffffffffffffff1681526020016000815260200160001515815250600460006002548152602001908152602001600020600082015181600001556020820151816001015560408201518160020160006101000a81548173ffffffffffffffffffffffffffffffffffffffff021916908373ffffffffffffffffffffffffffffffffffffffff1602179055506060820151816003015560808201518160040160006101000a81548160ff021916908315150217905550905050600260008154809291906106f090611004565b9190505550505050565b60046020528060005260406000206000915090508060000154908060010154908060020160009054906101000a900473ffffffffffffffffffffffffffffffffffffffff16908060030154908060040160009054906101000a900460ff16905085565b60015481565b6000805b600080549050811015610824573373ffffffffffffffffffffffffffffffffffffffff16600082815481106107c5577f4e487b7100000000000000000000000000000000000000000000000000000000600052603260045260246000fd5b9060005260206000200160009054906101000a900473ffffffffffffffffffffffffffffffffffffffff1673ffffffffffffffffffffffffffffffffffffffff16141561081157600191505b808061081c90611004565b915050610767565b50600115158115151461086c576040517f08c379a000000000000000000000000000000000000000000000000000000000815260040161086390610de3565b60405180910390fd5b600015156004600084815260200190815260200160002060040160009054906101000a900460ff161515146108d6576040517f08c379a00000000000000000000000000000000000000000000000000000000081526004016108cd90610e03565b60405180910390fd5b60001515600560003373ffffffffffffffffffffffffffffffffffffffff1673ffffffffffffffffffffffffffffffffffffffff168152602001908152602001600020600084815260200190815260200160002060009054906101000a900460ff1615151461094457600080fd5b6001600560003373ffffffffffffffffffffffffffffffffffffffff1673ffffffffffffffffffffffffffffffffffffffff168152602001908152602001600020600084815260200190815260200160002060006101000a81548160ff0219169083151502179055506004600083815260200190815260200160002060030160008154809291906109d490611004565b91905055507f0ee04e6d7ef21f8de39b0dcf9395672642145ebee634597da324de321b2ccd5d82600460008581526020019081526020016000206003015433604051610a2293929190610e3e565b60405180910390a1600154600460008481526020019081526020016000206003015410610b4f5760016004600084815260200190815260200160002060040160006101000a81548160ff02191690831515021790555060006004600084815260200190815260200160002060020160009054906101000a900473ffffffffffffffffffffffffffffffffffffffff1690506000600460008581526020019081526020016000206001015490508173ffffffffffffffffffffffffffffffffffffffff166108fc829081150290604051600060405180830381858888f19350505050158015610b14573d6000803e3d6000fd5b507f4c3d4214dfdc8764f4b7b1a16475948b1399cdb6754abe447dc53218398edacb84604051610b449190610e23565b60405180910390a150505b5050565b600081359050610b628161107c565b92915050565b600081359050610b7781611093565b92915050565b600081359050610b8c816110aa565b92915050565b600060208284031215610ba457600080fd5b6000610bb284828501610b53565b91505092915050565b60008060408385031215610bce57600080fd5b6000610bdc85828601610b53565b9250506020610bed85828601610b7d565b9150509250929050565b600060208284031215610c0957600080fd5b6000610c1784828501610b7d565b91505092915050565b60008060408385031215610c3357600080fd5b6000610c4185828601610b7d565b9250506020610c5285828601610b68565b9150509250929050565b610c6581610fce565b82525050565b610c7481610f86565b82525050565b610c8381610f74565b82525050565b610c9281610f98565b82525050565b6000610ca5602383610f0d565b91507f416d6f756e7420657863656564732074686520636f6e74726163742062616c6160008301527f6e636500000000000000000000000000000000000000000000000000000000006020830152604082019050919050565b6000610d0b601383610f0d565b91507f4f6e6c79206f776e65727320616c6c6f776564000000000000000000000000006000830152602082019050919050565b6000610d4b601e83610f0d565b91507f5472616e736665722068617320616c7265616479206265656e2073656e7400006000830152602082019050919050565b610d8781610fc4565b82525050565b6000602082019050610da26000830184610c7a565b92915050565b6000602082019050610dbd6000830184610c89565b92915050565b60006020820190508181036000830152610ddc81610c98565b9050919050565b60006020820190508181036000830152610dfc81610cfe565b9050919050565b60006020820190508181036000830152610e1c81610d3e565b9050919050565b6000602082019050610e386000830184610d7e565b92915050565b6000606082019050610e536000830186610d7e565b610e606020830185610d7e565b610e6d6040830184610c7a565b949350505050565b600060a082019050610e8a6000830188610d7e565b610e976020830187610d7e565b610ea46040830186610c6b565b610eb16060830185610d7e565b610ebe6080830184610c89565b9695505050505050565b6000608082019050610edd6000830187610d7e565b610eea6020830186610d7e565b610ef76040830185610c7a565b610f046060830184610c5c565b95945050505050565b600082825260208201905092915050565b6000610f2982610fc4565b9150610f3483610fc4565b9250827fffffffffffffffffffffffffffffffffffffffffffffffffffffffffffffffff03821115610f6957610f6861104d565b5b828201905092915050565b6000610f7f82610fa4565b9050919050565b6000610f9182610fa4565b9050919050565b60008115159050919050565b600073ffffffffffffffffffffffffffffffffffffffff82169050919050565b6000819050919050565b6000610fd982610fe0565b9050919050565b6000610feb82610ff2565b9050919050565b6000610ffd82610fa4565b9050919050565b600061100f82610fc4565b91507fffffffffffffffffffffffffffffffffffffffffffffffffffffffffffffffff8214156110425761104161104d565b5b600182019050919050565b7f4e487b7100000000000000000000000000000000000000000000000000000000600052601160045260246000fd5b61108581610f74565b811461109057600080fd5b50565b61109c81610f86565b81146110a757600080fd5b50565b6110b381610fc4565b81146110be57600080fd5b5056fea2646970667358221220c70c381914a0a8de9e2ea654b6a18a4637844935543ea77313d3ed832498129f64736f6c63430008000033",
  "immutableReferences": {},
  "source": "//SPDX-License-Identifier: GPL-3.0\r\n\r\npragma solidity ^0.8.0;\r\n\r\ncontract MultiSigWallet {\r\n    address[] public owners;\r\n    uint256 public limit;\r\n    uint256 public nextID;\r\n\r\n    struct TransferRequest {\r\n        uint256 ID;\r\n        uint256 amount;\r\n        address payable to;\r\n        uint256 approvals;\r\n        bool isSent;\r\n    }\r\n\r\n    mapping(address => uint256) public balances;\r\n    mapping(uint256 => TransferRequest) public transfers;\r\n    mapping(address => mapping(uint256 => bool)) public isApproved;\r\n\r\n    event TransferRequestCreation(\r\n        uint256 ID,\r\n        uint256 amount,\r\n        address creator,\r\n        address beneficiary\r\n    );\r\n    event ApprovalReception(uint256 ID, uint256 approvals, address approver);\r\n    event TransferRequestApproval(uint256 ID);\r\n\r\n    modifier onlyOwner() {\r\n        bool isOwner = false;\r\n        for (uint256 i; i < owners.length; i++) {\r\n            if (owners[i] == msg.sender) {\r\n                isOwner = true;\r\n            }\r\n        }\r\n        require(isOwner == true, \"Only owners allowed\");\r\n        _;\r\n    }\r\n\r\n    constructor(address[] memory _owners, uint256 _limit) {\r\n        owners = _owners;\r\n        limit = _limit;\r\n    }\r\n\r\n    receive() external payable {\r\n        depositFunds();\r\n    }\r\n\r\n    function depositFunds() public payable {\r\n        balances[msg.sender] += msg.value;\r\n    }\r\n\r\n    function getBalance()\r\n        public\r\n        view\r\n        onlyOwner\r\n        returns (uint256 contractBalance)\r\n    {\r\n        return address(this).balance;\r\n    }\r\n\r\n    function createTransferRequest(uint256 _amount, address payable _to)\r\n        external\r\n        onlyOwner\r\n    {\r\n        require(getBalance() >= _amount, \"Amount exceeds the contract balance\");\r\n        emit TransferRequestCreation(nextID, _amount, msg.sender, _to);\r\n        transfers[nextID] = TransferRequest(nextID, _amount, _to, 0, false);\r\n        nextID++;\r\n    }\r\n\r\n    function approveTransferRequest(uint256 _ID) external payable onlyOwner {\r\n        require(\r\n            transfers[_ID].isSent == false,\r\n            \"Transfer has already been sent\"\r\n        );\r\n        require(isApproved[msg.sender][_ID] == false);\r\n\r\n        isApproved[msg.sender][_ID] = true;\r\n        transfers[_ID].approvals++;\r\n\r\n        emit ApprovalReception(_ID, transfers[_ID].approvals, msg.sender);\r\n\r\n        if (transfers[_ID].approvals >= limit) {\r\n            transfers[_ID].isSent = true;\r\n            address payable to = transfers[_ID].to;\r\n            uint256 amount = transfers[_ID].amount;\r\n            to.transfer(amount);\r\n            emit TransferRequestApproval(_ID);\r\n        }\r\n    }\r\n}\r\n",
  "sourcePath": "C:/Users/zrinc/Projects/multisigwallet-react/src/contracts/MultiSigWallet.sol",
  "compiler": {
    "name": "solc",
    "version": "0.8.0+commit.c7dfd78e.Emscripten.clang"
  },
  "schemaVersion": "3.4.1",
  "updatedAt": "2021-09-21T01:45:49.066Z",
  "devdoc": {
    "kind": "dev",
    "methods": {},
    "version": 1
  },
  "userdoc": {
    "kind": "user",
    "methods": {},
    "version": 1
  }
}