{
  "contractName": "MultiSigWallet",
  "abi": [
    {
      "inputs": [
        {
          "internalType": "address[]",
          "name": "_owners",
          "type": "address[]"
        },
        {
          "internalType": "uint256",
          "name": "_limit",
          "type": "uint256"
        }
      ],
      "stateMutability": "nonpayable",
      "type": "constructor"
    },
    {
      "anonymous": false,
      "inputs": [
        {
          "indexed": false,
          "internalType": "uint256",
          "name": "ID",
          "type": "uint256"
        },
        {
          "indexed": false,
          "internalType": "uint256",
          "name": "approvals",
          "type": "uint256"
        },
        {
          "indexed": false,
          "internalType": "address",
          "name": "approver",
          "type": "address"
        }
      ],
      "name": "ApprovalReception",
      "type": "event"
    },
    {
      "anonymous": false,
      "inputs": [
        {
          "indexed": false,
          "internalType": "uint256",
          "name": "ID",
          "type": "uint256"
        }
      ],
      "name": "TransferRequestApproval",
      "type": "event"
    },
    {
      "anonymous": false,
      "inputs": [
        {
          "indexed": false,
          "internalType": "uint256",
          "name": "ID",
          "type": "uint256"
        },
        {
          "indexed": false,
          "internalType": "uint256",
          "name": "amount",
          "type": "uint256"
        },
        {
          "indexed": false,
          "internalType": "address",
          "name": "creator",
          "type": "address"
        },
        {
          "indexed": false,
          "internalType": "address",
          "name": "beneficiary",
          "type": "address"
        }
      ],
      "name": "TransferRequestCreation",
      "type": "event"
    },
    {
      "inputs": [
        {
          "internalType": "address",
          "name": "",
          "type": "address"
        }
      ],
      "name": "balances",
      "outputs": [
        {
          "internalType": "uint256",
          "name": "",
          "type": "uint256"
        }
      ],
      "stateMutability": "view",
      "type": "function",
      "constant": true
    },
    {
      "inputs": [
        {
          "internalType": "address",
          "name": "",
          "type": "address"
        },
        {
          "internalType": "uint256",
          "name": "",
          "type": "uint256"
        }
      ],
      "name": "isApproved",
      "outputs": [
        {
          "internalType": "bool",
          "name": "",
          "type": "bool"
        }
      ],
      "stateMutability": "view",
      "type": "function",
      "constant": true
    },
    {
      "inputs": [],
      "name": "limit",
      "outputs": [
        {
          "internalType": "uint256",
          "name": "",
          "type": "uint256"
        }
      ],
      "stateMutability": "view",
      "type": "function",
      "constant": true
    },
    {
      "inputs": [
        {
          "internalType": "uint256",
          "name": "",
          "type": "uint256"
        }
      ],
      "name": "owners",
      "outputs": [
        {
          "internalType": "address",
          "name": "",
          "type": "address"
        }
      ],
      "stateMutability": "view",
      "type": "function",
      "constant": true
    },
    {
      "inputs": [
        {
          "internalType": "uint256",
          "name": "",
          "type": "uint256"
        }
      ],
      "name": "transfers",
      "outputs": [
        {
          "internalType": "uint256",
          "name": "ID",
          "type": "uint256"
        },
        {
          "internalType": "uint256",
          "name": "amount",
          "type": "uint256"
        },
        {
          "internalType": "address payable",
          "name": "to",
          "type": "address"
        },
        {
          "internalType": "uint256",
          "name": "approvals",
          "type": "uint256"
        },
        {
          "internalType": "bool",
          "name": "isSent",
          "type": "bool"
        }
      ],
      "stateMutability": "view",
      "type": "function",
      "constant": true
    },
    {
      "stateMutability": "payable",
      "type": "receive",
      "payable": true
    },
    {
      "inputs": [],
      "name": "depositFunds",
      "outputs": [],
      "stateMutability": "payable",
      "type": "function",
      "payable": true
    },
    {
      "inputs": [],
      "name": "getBalance",
      "outputs": [
        {
          "internalType": "uint256",
          "name": "contractBalance",
          "type": "uint256"
        }
      ],
      "stateMutability": "view",
      "type": "function",
      "constant": true
    },
    {
      "inputs": [],
      "name": "getOwners",
      "outputs": [
        {
          "internalType": "address[]",
          "name": "",
          "type": "address[]"
        }
      ],
      "stateMutability": "view",
      "type": "function",
      "constant": true
    },
    {
      "inputs": [],
      "name": "getTransfers",
      "outputs": [
        {
          "components": [
            {
              "internalType": "uint256",
              "name": "ID",
              "type": "uint256"
            },
            {
              "internalType": "uint256",
              "name": "amount",
              "type": "uint256"
            },
            {
              "internalType": "address payable",
              "name": "to",
              "type": "address"
            },
            {
              "internalType": "uint256",
              "name": "approvals",
              "type": "uint256"
            },
            {
              "internalType": "bool",
              "name": "isSent",
              "type": "bool"
            }
          ],
          "internalType": "struct MultiSigWallet.TransferRequest[]",
          "name": "",
          "type": "tuple[]"
        }
      ],
      "stateMutability": "view",
      "type": "function",
      "constant": true
    },
    {
      "inputs": [
        {
          "internalType": "uint256",
          "name": "_amount",
          "type": "uint256"
        },
        {
          "internalType": "address payable",
          "name": "_to",
          "type": "address"
        }
      ],
      "name": "createTransferRequest",
      "outputs": [],
      "stateMutability": "nonpayable",
      "type": "function"
    },
    {
      "inputs": [
        {
          "internalType": "uint256",
          "name": "_ID",
          "type": "uint256"
        }
      ],
      "name": "approveTransferRequest",
      "outputs": [],
      "stateMutability": "nonpayable",
      "type": "function"
    }
  ],
  "bytecode": "0x60806040523480156200001157600080fd5b5060405162001a5d38038062001a5d8339818101604052810190620000379190620001dd565b81600090805190602001906200004f9291906200005f565b508060018190555050506200033b565b828054828255906000526020600020908101928215620000db579160200282015b82811115620000da5782518260006101000a81548173ffffffffffffffffffffffffffffffffffffffff021916908373ffffffffffffffffffffffffffffffffffffffff1602179055509160200191906001019062000080565b5b509050620000ea9190620000ee565b5090565b5b8082111562000109576000816000905550600101620000ef565b5090565b6000620001246200011e846200026b565b62000237565b905080838252602082019050828560208602820111156200014457600080fd5b60005b858110156200017857816200015d888262000182565b84526020840193506020830192505060018101905062000147565b5050509392505050565b600081519050620001938162000307565b92915050565b600082601f830112620001ab57600080fd5b8151620001bd8482602086016200010d565b91505092915050565b600081519050620001d78162000321565b92915050565b60008060408385031215620001f157600080fd5b600083015167ffffffffffffffff8111156200020c57600080fd5b6200021a8582860162000199565b92505060206200022d85828601620001c6565b9150509250929050565b6000604051905081810181811067ffffffffffffffff82111715620002615762000260620002d8565b5b8060405250919050565b600067ffffffffffffffff821115620002895762000288620002d8565b5b602082029050602081019050919050565b6000620002a782620002ae565b9050919050565b600073ffffffffffffffffffffffffffffffffffffffff82169050919050565b6000819050919050565b7f4e487b7100000000000000000000000000000000000000000000000000000000600052604160045260246000fd5b62000312816200029a565b81146200031e57600080fd5b50565b6200032c81620002ce565b81146200033857600080fd5b50565b611712806200034b6000396000f3fe6080604052600436106100a05760003560e01c80634e4dd230116100645780634e4dd230146101c15780639377d711146101ea578063a0e67e2b1461022b578063a4d66daf14610256578063dec3eea514610281578063e2c41dbc146102aa576100af565b8063025e7c27146100b457806312065fe0146100f157806327e235e31461011c5780632a16cca4146101595780632f65142c14610196576100af565b366100af576100ad6102b4565b005b600080fd5b3480156100c057600080fd5b506100db60048036038101906100d69190610f6c565b61030c565b6040516100e891906112d2565b60405180910390f35b3480156100fd57600080fd5b5061010661034b565b60405161011391906113cc565b60405180910390f35b34801561012857600080fd5b50610143600480360381019061013e9190610f07565b610461565b60405161015091906113cc565b60405180910390f35b34801561016557600080fd5b50610180600480360381019061017b9190610f30565b610479565b60405161018d9190611331565b60405180910390f35b3480156101a257600080fd5b506101ab6104a8565b6040516101b8919061130f565b60405180910390f35b3480156101cd57600080fd5b506101e860048036038101906101e39190610f95565b610596565b005b3480156101f657600080fd5b50610211600480360381019061020c9190610f6c565b610828565b60405161022295949392919061141e565b60405180910390f35b34801561023757600080fd5b5061024061089b565b60405161024d91906112ed565b60405180910390f35b34801561026257600080fd5b5061026b610929565b60405161027891906113cc565b60405180910390f35b34801561028d57600080fd5b506102a860048036038101906102a39190610f6c565b61092f565b005b6102b26102b4565b005b34600360003373ffffffffffffffffffffffffffffffffffffffff1673ffffffffffffffffffffffffffffffffffffffff16815260200190815260200160002060008282546103039190611539565b92505081905550565b6000818154811061031c57600080fd5b906000526020600020016000915054906101000a900473ffffffffffffffffffffffffffffffffffffffff1681565b6000806000905060005b600080549050811015610412573373ffffffffffffffffffffffffffffffffffffffff16600082815481106103b3577f4e487b7100000000000000000000000000000000000000000000000000000000600052603260045260246000fd5b9060005260206000200160009054906101000a900473ffffffffffffffffffffffffffffffffffffffff1673ffffffffffffffffffffffffffffffffffffffff1614156103ff57600191505b808061040a9061161f565b915050610355565b50600115158115151461045a576040517f08c379a00000000000000000000000000000000000000000000000000000000081526004016104519061138c565b60405180910390fd5b4791505090565b60036020528060005260406000206000915090505481565b60046020528160005260406000206020528060005260406000206000915091509054906101000a900460ff1681565b60606002805480602002602001604051908101604052809291908181526020016000905b8282101561058d57838290600052602060002090600502016040518060a001604052908160008201548152602001600182015481526020016002820160009054906101000a900473ffffffffffffffffffffffffffffffffffffffff1673ffffffffffffffffffffffffffffffffffffffff1673ffffffffffffffffffffffffffffffffffffffff168152602001600382015481526020016004820160009054906101000a900460ff161515151581525050815260200190600101906104cc565b50505050905090565b6000805b600080549050811015610657573373ffffffffffffffffffffffffffffffffffffffff16600082815481106105f8577f4e487b7100000000000000000000000000000000000000000000000000000000600052603260045260246000fd5b9060005260206000200160009054906101000a900473ffffffffffffffffffffffffffffffffffffffff1673ffffffffffffffffffffffffffffffffffffffff16141561064457600191505b808061064f9061161f565b91505061059a565b50600115158115151461069f576040517f08c379a00000000000000000000000000000000000000000000000000000000081526004016106969061138c565b60405180910390fd5b826106a861034b565b10156106e9576040517f08c379a00000000000000000000000000000000000000000000000000000000081526004016106e09061136c565b60405180910390fd5b7f576aabd1f1a9e86d2d10d5f31e88027cd3fbb1f482be81dc61820d2b27dde0cc6002805490508433856040516107239493929190611471565b60405180910390a160026040518060a0016040528060028054905081526020018581526020018473ffffffffffffffffffffffffffffffffffffffff16815260200160008152602001600015158152509080600181540180825580915050600190039060005260206000209060050201600090919091909150600082015181600001556020820151816001015560408201518160020160006101000a81548173ffffffffffffffffffffffffffffffffffffffff021916908373ffffffffffffffffffffffffffffffffffffffff1602179055506060820151816003015560808201518160040160006101000a81548160ff0219169083151502179055505050505050565b6002818154811061083857600080fd5b90600052602060002090600502016000915090508060000154908060010154908060020160009054906101000a900473ffffffffffffffffffffffffffffffffffffffff16908060030154908060040160009054906101000a900460ff16905085565b6060600080548060200260200160405190810160405280929190818152602001828054801561091f57602002820191906000526020600020905b8160009054906101000a900473ffffffffffffffffffffffffffffffffffffffff1673ffffffffffffffffffffffffffffffffffffffff16815260200190600101908083116108d5575b5050505050905090565b60015481565b6000805b6000805490508110156109f0573373ffffffffffffffffffffffffffffffffffffffff1660008281548110610991577f4e487b7100000000000000000000000000000000000000000000000000000000600052603260045260246000fd5b9060005260206000200160009054906101000a900473ffffffffffffffffffffffffffffffffffffffff1673ffffffffffffffffffffffffffffffffffffffff1614156109dd57600191505b80806109e89061161f565b915050610933565b506001151581151514610a38576040517f08c379a0000000000000000000000000000000000000000000000000000000008152600401610a2f9061138c565b60405180910390fd5b6000151560028381548110610a76577f4e487b7100000000000000000000000000000000000000000000000000000000600052603260045260246000fd5b906000526020600020906005020160040160009054906101000a900460ff16151514610ad7576040517f08c379a0000000000000000000000000000000000000000000000000000000008152600401610ace906113ac565b60405180910390fd5b60001515600460003373ffffffffffffffffffffffffffffffffffffffff1673ffffffffffffffffffffffffffffffffffffffff168152602001908152602001600020600084815260200190815260200160002060009054906101000a900460ff16151514610b7b576040517f08c379a0000000000000000000000000000000000000000000000000000000008152600401610b729061134c565b60405180910390fd5b6001600460003373ffffffffffffffffffffffffffffffffffffffff1673ffffffffffffffffffffffffffffffffffffffff168152602001908152602001600020600084815260200190815260200160002060006101000a81548160ff02191690831515021790555060028281548110610c1e577f4e487b7100000000000000000000000000000000000000000000000000000000600052603260045260246000fd5b90600052602060002090600502016003016000815480929190610c409061161f565b91905055507f0ee04e6d7ef21f8de39b0dcf9395672642145ebee634597da324de321b2ccd5d8260028481548110610ca1577f4e487b7100000000000000000000000000000000000000000000000000000000600052603260045260246000fd5b90600052602060002090600502016003015433604051610cc3939291906113e7565b60405180910390a160015460028381548110610d08577f4e487b7100000000000000000000000000000000000000000000000000000000600052603260045260246000fd5b90600052602060002090600502016003015410610ec457600160028381548110610d5b577f4e487b7100000000000000000000000000000000000000000000000000000000600052603260045260246000fd5b906000526020600020906005020160040160006101000a81548160ff021916908315150217905550600060028381548110610dbf577f4e487b7100000000000000000000000000000000000000000000000000000000600052603260045260246000fd5b906000526020600020906005020160020160009054906101000a900473ffffffffffffffffffffffffffffffffffffffff169050600060028481548110610e2f577f4e487b7100000000000000000000000000000000000000000000000000000000600052603260045260246000fd5b90600052602060002090600502016001015490508173ffffffffffffffffffffffffffffffffffffffff166108fc829081150290604051600060405180830381858888f19350505050158015610e89573d6000803e3d6000fd5b507f4c3d4214dfdc8764f4b7b1a16475948b1399cdb6754abe447dc53218398edacb84604051610eb991906113cc565b60405180910390a150505b5050565b600081359050610ed781611697565b92915050565b600081359050610eec816116ae565b92915050565b600081359050610f01816116c5565b92915050565b600060208284031215610f1957600080fd5b6000610f2784828501610ec8565b91505092915050565b60008060408385031215610f4357600080fd5b6000610f5185828601610ec8565b9250506020610f6285828601610ef2565b9150509250929050565b600060208284031215610f7e57600080fd5b6000610f8c84828501610ef2565b91505092915050565b60008060408385031215610fa857600080fd5b6000610fb685828601610ef2565b9250506020610fc785828601610edd565b9150509250929050565b6000610fdd838361102e565b60208301905092915050565b6000610ff5838361124c565b60a08301905092915050565b61100a816115e9565b82525050565b611019816115a1565b82525050565b611028816115a1565b82525050565b6110378161158f565b82525050565b6110468161158f565b82525050565b6000611057826114d6565b6110618185611506565b935061106c836114b6565b8060005b8381101561109d5781516110848882610fd1565b975061108f836114ec565b925050600181019050611070565b5085935050505092915050565b60006110b5826114e1565b6110bf8185611517565b93506110ca836114c6565b8060005b838110156110fb5781516110e28882610fe9565b97506110ed836114f9565b9250506001810190506110ce565b5085935050505092915050565b611111816115b3565b82525050565b611120816115b3565b82525050565b6000611133601083611528565b91507f416c726561647920617070726f766564000000000000000000000000000000006000830152602082019050919050565b6000611173602383611528565b91507f416d6f756e7420657863656564732074686520636f6e74726163742062616c6160008301527f6e636500000000000000000000000000000000000000000000000000000000006020830152604082019050919050565b60006111d9601383611528565b91507f4f6e6c79206f776e65727320616c6c6f776564000000000000000000000000006000830152602082019050919050565b6000611219601e83611528565b91507f5472616e736665722068617320616c7265616479206265656e2073656e7400006000830152602082019050919050565b60a08201600082015161126260008501826112b4565b50602082015161127560208501826112b4565b5060408201516112886040850182611010565b50606082015161129b60608501826112b4565b5060808201516112ae6080850182611108565b50505050565b6112bd816115df565b82525050565b6112cc816115df565b82525050565b60006020820190506112e7600083018461103d565b92915050565b60006020820190508181036000830152611307818461104c565b905092915050565b6000602082019050818103600083015261132981846110aa565b905092915050565b60006020820190506113466000830184611117565b92915050565b6000602082019050818103600083015261136581611126565b9050919050565b6000602082019050818103600083015261138581611166565b9050919050565b600060208201905081810360008301526113a5816111cc565b9050919050565b600060208201905081810360008301526113c58161120c565b9050919050565b60006020820190506113e160008301846112c3565b92915050565b60006060820190506113fc60008301866112c3565b61140960208301856112c3565b611416604083018461103d565b949350505050565b600060a08201905061143360008301886112c3565b61144060208301876112c3565b61144d604083018661101f565b61145a60608301856112c3565b6114676080830184611117565b9695505050505050565b600060808201905061148660008301876112c3565b61149360208301866112c3565b6114a0604083018561103d565b6114ad6060830184611001565b95945050505050565b6000819050602082019050919050565b6000819050602082019050919050565b600081519050919050565b600081519050919050565b6000602082019050919050565b6000602082019050919050565b600082825260208201905092915050565b600082825260208201905092915050565b600082825260208201905092915050565b6000611544826115df565b915061154f836115df565b9250827fffffffffffffffffffffffffffffffffffffffffffffffffffffffffffffffff0382111561158457611583611668565b5b828201905092915050565b600061159a826115bf565b9050919050565b60006115ac826115bf565b9050919050565b60008115159050919050565b600073ffffffffffffffffffffffffffffffffffffffff82169050919050565b6000819050919050565b60006115f4826115fb565b9050919050565b60006116068261160d565b9050919050565b6000611618826115bf565b9050919050565b600061162a826115df565b91507fffffffffffffffffffffffffffffffffffffffffffffffffffffffffffffffff82141561165d5761165c611668565b5b600182019050919050565b7f4e487b7100000000000000000000000000000000000000000000000000000000600052601160045260246000fd5b6116a08161158f565b81146116ab57600080fd5b50565b6116b7816115a1565b81146116c257600080fd5b50565b6116ce816115df565b81146116d957600080fd5b5056fea26469706673582212208a42e938ae66dfe254de0d30e34733414e70645ebb0dfc0aac523b95d508e07264736f6c63430008000033",
  "immutableReferences": {},
  "source": "//SPDX-License-Identifier: GPL-3.0\r\n\r\npragma solidity ^0.8.0;\r\n\r\ncontract MultiSigWallet {\r\n    address[] public owners;\r\n    uint256 public limit;\r\n\r\n    struct TransferRequest {\r\n        uint256 ID;\r\n        uint256 amount;\r\n        address payable to;\r\n        uint256 approvals;\r\n        bool isSent;\r\n    }\r\n\r\n    // mapping(uint256 => TransferRequest) public transfers;\r\n    TransferRequest[] public transfers;\r\n\r\n    mapping(address => uint256) public balances;\r\n    mapping(address => mapping(uint256 => bool)) public isApproved;\r\n\r\n    event TransferRequestCreation(\r\n        uint256 ID,\r\n        uint256 amount,\r\n        address creator,\r\n        address beneficiary\r\n    );\r\n    event ApprovalReception(uint256 ID, uint256 approvals, address approver);\r\n    event TransferRequestApproval(uint256 ID);\r\n\r\n    modifier onlyOwner() {\r\n        bool isOwner = false;\r\n        for (uint256 i; i < owners.length; i++) {\r\n            if (owners[i] == msg.sender) {\r\n                isOwner = true;\r\n            }\r\n        }\r\n        require(isOwner == true, \"Only owners allowed\");\r\n        _;\r\n    }\r\n\r\n    constructor(address[] memory _owners, uint256 _limit) {\r\n        owners = _owners;\r\n        limit = _limit;\r\n    }\r\n\r\n    receive() external payable {\r\n        depositFunds();\r\n    }\r\n\r\n    function depositFunds() public payable {\r\n        balances[msg.sender] += msg.value;\r\n    }\r\n\r\n    function getBalance()\r\n        public\r\n        view\r\n        onlyOwner\r\n        returns (uint256 contractBalance)\r\n    {\r\n        return address(this).balance;\r\n    }\r\n\r\n    function getOwners() external view returns (address[] memory) {\r\n        return owners;\r\n    }\r\n\r\n    function getTransfers() external view returns (TransferRequest[] memory) {\r\n        return transfers;\r\n    }\r\n\r\n    function createTransferRequest(uint256 _amount, address payable _to)\r\n        external\r\n        onlyOwner\r\n    {\r\n        require(getBalance() >= _amount, \"Amount exceeds the contract balance\");\r\n\r\n        emit TransferRequestCreation(transfers.length, _amount, msg.sender, _to);\r\n\r\n        transfers.push(TransferRequest(transfers.length, _amount, _to, 0, false));\r\n    }\r\n\r\n    function approveTransferRequest(uint256 _ID) external onlyOwner {\r\n        require(\r\n            transfers[_ID].isSent == false,\r\n            \"Transfer has already been sent\"\r\n        );\r\n        require(isApproved[msg.sender][_ID] == false, \"Already approved\");\r\n\r\n        isApproved[msg.sender][_ID] = true;\r\n        transfers[_ID].approvals++;\r\n\r\n        emit ApprovalReception(_ID, transfers[_ID].approvals, msg.sender);\r\n\r\n        if (transfers[_ID].approvals >= limit) {\r\n            transfers[_ID].isSent = true;\r\n            address payable to = transfers[_ID].to;\r\n            uint256 amount = transfers[_ID].amount;\r\n            to.transfer(amount);\r\n            emit TransferRequestApproval(_ID);\r\n        }\r\n    }\r\n}\r\n",
  "sourcePath": "C:/Users/zrinc/Projects/multisigwallet-react/src/contracts/MultiSigWallet.sol",
  "compiler": {
    "name": "solc",
    "version": "0.8.0+commit.c7dfd78e.Emscripten.clang"
  },
  "schemaVersion": "3.4.1",
  "updatedAt": "2021-12-01T21:09:42.410Z",
  "networkType": "ethereum",
  "devdoc": {
    "kind": "dev",
    "methods": {},
    "version": 1
  },
  "userdoc": {
    "kind": "user",
    "methods": {},
    "version": 1
  }
}